{
  "_format": "hh-sol-artifact-1",
  "contractName": "Token",
  "sourceName": "contracts/Token.sol",
  "abi": [
    {
      "inputs": [
        {
          "internalType": "address",
          "name": "initialRoyaltiesReceiver",
          "type": "address"
        }
      ],
      "stateMutability": "nonpayable",
      "type": "constructor"
    },
    {
      "anonymous": false,
      "inputs": [
        {
          "indexed": true,
          "internalType": "address",
          "name": "owner",
          "type": "address"
        },
        {
          "indexed": true,
          "internalType": "address",
          "name": "approved",
          "type": "address"
        },
        {
          "indexed": true,
          "internalType": "uint256",
          "name": "tokenId",
          "type": "uint256"
        }
      ],
      "name": "Approval",
      "type": "event"
    },
    {
      "anonymous": false,
      "inputs": [
        {
          "indexed": true,
          "internalType": "address",
          "name": "owner",
          "type": "address"
        },
        {
          "indexed": true,
          "internalType": "address",
          "name": "operator",
          "type": "address"
        },
        {
          "indexed": false,
          "internalType": "bool",
          "name": "approved",
          "type": "bool"
        }
      ],
      "name": "ApprovalForAll",
      "type": "event"
    },
    {
      "anonymous": false,
      "inputs": [
        {
          "indexed": false,
          "internalType": "uint256",
          "name": "tokenId",
          "type": "uint256"
        },
        {
          "indexed": false,
          "internalType": "address",
          "name": "recipient",
          "type": "address"
        }
      ],
      "name": "Mint",
      "type": "event"
    },
    {
      "anonymous": false,
      "inputs": [
        {
          "indexed": true,
          "internalType": "address",
          "name": "previousOwner",
          "type": "address"
        },
        {
          "indexed": true,
          "internalType": "address",
          "name": "newOwner",
          "type": "address"
        }
      ],
      "name": "OwnershipTransferred",
      "type": "event"
    },
    {
      "anonymous": false,
      "inputs": [
        {
          "indexed": true,
          "internalType": "address",
          "name": "from",
          "type": "address"
        },
        {
          "indexed": true,
          "internalType": "address",
          "name": "to",
          "type": "address"
        },
        {
          "indexed": true,
          "internalType": "uint256",
          "name": "tokenId",
          "type": "uint256"
        }
      ],
      "name": "Transfer",
      "type": "event"
    },
    {
      "inputs": [],
      "name": "MAX_SUPPLY",
      "outputs": [
        {
          "internalType": "uint256",
          "name": "",
          "type": "uint256"
        }
      ],
      "stateMutability": "view",
      "type": "function"
    },
    {
      "inputs": [
        {
          "internalType": "address",
          "name": "to",
          "type": "address"
        },
        {
          "internalType": "uint256",
          "name": "tokenId",
          "type": "uint256"
        }
      ],
      "name": "approve",
      "outputs": [],
      "stateMutability": "nonpayable",
      "type": "function"
    },
    {
      "inputs": [
        {
          "internalType": "address",
          "name": "owner",
          "type": "address"
        }
      ],
      "name": "balanceOf",
      "outputs": [
        {
          "internalType": "uint256",
          "name": "",
          "type": "uint256"
        }
      ],
      "stateMutability": "view",
      "type": "function"
    },
    {
      "inputs": [
        {
          "internalType": "uint256",
          "name": "tokenId",
          "type": "uint256"
        }
      ],
      "name": "getApproved",
      "outputs": [
        {
          "internalType": "address",
          "name": "",
          "type": "address"
        }
      ],
      "stateMutability": "view",
      "type": "function"
    },
    {
      "inputs": [
        {
          "internalType": "address",
          "name": "owner",
          "type": "address"
        },
        {
          "internalType": "address",
          "name": "operator",
          "type": "address"
        }
      ],
      "name": "isApprovedForAll",
      "outputs": [
        {
          "internalType": "bool",
          "name": "",
          "type": "bool"
        }
      ],
      "stateMutability": "view",
      "type": "function"
    },
    {
      "inputs": [
        {
          "internalType": "address",
          "name": "recipient",
          "type": "address"
        },
        {
          "internalType": "string",
          "name": "hash",
          "type": "string"
        }
      ],
      "name": "mint",
      "outputs": [
        {
          "internalType": "uint256",
          "name": "tokenId",
          "type": "uint256"
        }
      ],
      "stateMutability": "nonpayable",
      "type": "function"
    },
    {
      "inputs": [],
      "name": "name",
      "outputs": [
        {
          "internalType": "string",
          "name": "",
          "type": "string"
        }
      ],
      "stateMutability": "view",
      "type": "function"
    },
    {
      "inputs": [],
      "name": "owner",
      "outputs": [
        {
          "internalType": "address",
          "name": "",
          "type": "address"
        }
      ],
      "stateMutability": "view",
      "type": "function"
    },
    {
      "inputs": [
        {
          "internalType": "uint256",
          "name": "tokenId",
          "type": "uint256"
        }
      ],
      "name": "ownerOf",
      "outputs": [
        {
          "internalType": "address",
          "name": "",
          "type": "address"
        }
      ],
      "stateMutability": "view",
      "type": "function"
    },
    {
      "inputs": [],
      "name": "renounceOwnership",
      "outputs": [],
      "stateMutability": "nonpayable",
      "type": "function"
    },
    {
      "inputs": [],
      "name": "royaltiesPercentage",
      "outputs": [
        {
          "internalType": "uint256",
          "name": "",
          "type": "uint256"
        }
      ],
      "stateMutability": "view",
      "type": "function"
    },
    {
      "inputs": [],
      "name": "royaltiesReceiver",
      "outputs": [
        {
          "internalType": "address",
          "name": "",
          "type": "address"
        }
      ],
      "stateMutability": "view",
      "type": "function"
    },
    {
      "inputs": [
        {
          "internalType": "uint256",
          "name": "_tokenId",
          "type": "uint256"
        },
        {
          "internalType": "uint256",
          "name": "_salePrice",
          "type": "uint256"
        }
      ],
      "name": "royaltyInfo",
      "outputs": [
        {
          "internalType": "address",
          "name": "receiver",
          "type": "address"
        },
        {
          "internalType": "uint256",
          "name": "royaltyAmount",
          "type": "uint256"
        }
      ],
      "stateMutability": "view",
      "type": "function"
    },
    {
      "inputs": [
        {
          "internalType": "address",
          "name": "from",
          "type": "address"
        },
        {
          "internalType": "address",
          "name": "to",
          "type": "address"
        },
        {
          "internalType": "uint256",
          "name": "tokenId",
          "type": "uint256"
        }
      ],
      "name": "safeTransferFrom",
      "outputs": [],
      "stateMutability": "nonpayable",
      "type": "function"
    },
    {
      "inputs": [
        {
          "internalType": "address",
          "name": "from",
          "type": "address"
        },
        {
          "internalType": "address",
          "name": "to",
          "type": "address"
        },
        {
          "internalType": "uint256",
          "name": "tokenId",
          "type": "uint256"
        },
        {
          "internalType": "bytes",
          "name": "_data",
          "type": "bytes"
        }
      ],
      "name": "safeTransferFrom",
      "outputs": [],
      "stateMutability": "nonpayable",
      "type": "function"
    },
    {
      "inputs": [
        {
          "internalType": "address",
          "name": "operator",
          "type": "address"
        },
        {
          "internalType": "bool",
          "name": "approved",
          "type": "bool"
        }
      ],
      "name": "setApprovalForAll",
      "outputs": [],
      "stateMutability": "nonpayable",
      "type": "function"
    },
    {
      "inputs": [
        {
          "internalType": "uint256",
          "name": "rpercent",
          "type": "uint256"
        }
      ],
      "name": "setRoyaltiesPercentage",
      "outputs": [],
      "stateMutability": "nonpayable",
      "type": "function"
    },
    {
      "inputs": [
        {
          "internalType": "address",
          "name": "newRoyaltiesReceiver",
          "type": "address"
        }
      ],
      "name": "setRoyaltiesReceiver",
      "outputs": [],
      "stateMutability": "nonpayable",
      "type": "function"
    },
    {
      "inputs": [
        {
          "internalType": "bytes4",
          "name": "interfaceId",
          "type": "bytes4"
        }
      ],
      "name": "supportsInterface",
      "outputs": [
        {
          "internalType": "bool",
          "name": "",
          "type": "bool"
        }
      ],
      "stateMutability": "view",
      "type": "function"
    },
    {
      "inputs": [],
      "name": "symbol",
      "outputs": [
        {
          "internalType": "string",
          "name": "",
          "type": "string"
        }
      ],
      "stateMutability": "view",
      "type": "function"
    },
    {
      "inputs": [
        {
          "internalType": "uint256",
          "name": "index",
          "type": "uint256"
        }
      ],
      "name": "tokenByIndex",
      "outputs": [
        {
          "internalType": "uint256",
          "name": "",
          "type": "uint256"
        }
      ],
      "stateMutability": "view",
      "type": "function"
    },
    {
      "inputs": [
        {
          "internalType": "address",
          "name": "owner",
          "type": "address"
        },
        {
          "internalType": "uint256",
          "name": "index",
          "type": "uint256"
        }
      ],
      "name": "tokenOfOwnerByIndex",
      "outputs": [
        {
          "internalType": "uint256",
          "name": "",
          "type": "uint256"
        }
      ],
      "stateMutability": "view",
      "type": "function"
    },
    {
      "inputs": [
        {
          "internalType": "uint256",
          "name": "tokenId",
          "type": "uint256"
        }
      ],
      "name": "tokenURI",
      "outputs": [
        {
          "internalType": "string",
          "name": "",
          "type": "string"
        }
      ],
      "stateMutability": "view",
      "type": "function"
    },
    {
      "inputs": [
        {
          "internalType": "address",
          "name": "_owner",
          "type": "address"
        }
      ],
      "name": "tokensOfOwner",
      "outputs": [
        {
          "internalType": "uint256[]",
          "name": "ownerTokens",
          "type": "uint256[]"
        }
      ],
      "stateMutability": "view",
      "type": "function"
    },
    {
      "inputs": [],
      "name": "totalSupply",
      "outputs": [
        {
          "internalType": "uint256",
          "name": "",
          "type": "uint256"
        }
      ],
      "stateMutability": "view",
      "type": "function"
    },
    {
      "inputs": [
        {
          "internalType": "address",
          "name": "from",
          "type": "address"
        },
        {
          "internalType": "address",
          "name": "to",
          "type": "address"
        },
        {
          "internalType": "uint256",
          "name": "tokenId",
          "type": "uint256"
        }
      ],
      "name": "transferFrom",
      "outputs": [],
      "stateMutability": "nonpayable",
      "type": "function"
    },
    {
      "inputs": [
        {
          "internalType": "address",
          "name": "newOwner",
          "type": "address"
        }
      ],
      "name": "transferOwnership",
      "outputs": [],
      "stateMutability": "nonpayable",
      "type": "function"
    }
  ],
  "bytecode": "0x6080604052600a600e553480156200001657600080fd5b50604051620043f2380380620043f283398181016040528101906200003c9190620002d7565b6040518060400160405280600a81526020017f53616d706c65204e4654000000000000000000000000000000000000000000008152506040518060400160405280600381526020017f4e46540000000000000000000000000000000000000000000000000000000000815250620000c8620000bc6200014460201b60201c565b6200014c60201b60201c565b8160019080519060200190620000e092919062000210565b508060029080519060200190620000f992919062000210565b50505080600d60006101000a81548173ffffffffffffffffffffffffffffffffffffffff021916908373ffffffffffffffffffffffffffffffffffffffff16021790555050620003b6565b600033905090565b60008060009054906101000a900473ffffffffffffffffffffffffffffffffffffffff169050816000806101000a81548173ffffffffffffffffffffffffffffffffffffffff021916908373ffffffffffffffffffffffffffffffffffffffff1602179055508173ffffffffffffffffffffffffffffffffffffffff168173ffffffffffffffffffffffffffffffffffffffff167f8be0079c531659141344cd1fd0a4f28419497f9722a3daafe3b4186f6b6457e060405160405180910390a35050565b8280546200021e9062000337565b90600052602060002090601f0160209004810192826200024257600085556200028e565b82601f106200025d57805160ff19168380011785556200028e565b828001600101855582156200028e579182015b828111156200028d57825182559160200191906001019062000270565b5b5090506200029d9190620002a1565b5090565b5b80821115620002bc576000816000905550600101620002a2565b5090565b600081519050620002d1816200039c565b92915050565b600060208284031215620002ea57600080fd5b6000620002fa84828501620002c0565b91505092915050565b6000620003108262000317565b9050919050565b600073ffffffffffffffffffffffffffffffffffffffff82169050919050565b600060028204905060018216806200035057607f821691505b602082108114156200036757620003666200036d565b5b50919050565b7f4e487b7100000000000000000000000000000000000000000000000000000000600052602260045260246000fd5b620003a78162000303565b8114620003b357600080fd5b50565b61402c80620003c66000396000f3fe608060405234801561001057600080fd5b50600436106101a95760003560e01c8063715018a6116100f9578063b514371511610097578063cafa8dfe11610071578063cafa8dfe146104e1578063d0def521146104ff578063e985e9c51461052f578063f2fde38b1461055f576101a9565b8063b514371514610479578063b88d4fde14610495578063c87b56dd146104b1576101a9565b80639466d206116100d35780639466d2061461040557806395d89b4114610421578063a22cb4651461043f578063a3a51bd51461045b576101a9565b8063715018a6146103ad5780638462151c146103b75780638da5cb5b146103e7576101a9565b80632a55205a1161016657806342842e0e1161014057806342842e0e146103015780634f6ccce71461031d5780636352211e1461034d57806370a082311461037d576101a9565b80632a55205a146102825780632f745c59146102b357806332cb6b0c146102e3576101a9565b806301ffc9a7146101ae57806306fdde03146101de578063081812fc146101fc578063095ea7b31461022c57806318160ddd1461024857806323b872dd14610266575b600080fd5b6101c860048036038101906101c39190612d6d565b61057b565b6040516101d59190613806565b60405180910390f35b6101e66105f5565b6040516101f39190613821565b60405180910390f35b61021660048036038101906102119190612dbf565b610687565b6040516102239190613754565b60405180910390f35b61024660048036038101906102419190612d31565b61070c565b005b610250610824565b60405161025d9190613ae3565b60405180910390f35b610280600480360381019061027b9190612bd7565b610831565b005b61029c60048036038101906102979190612de8565b610891565b6040516102aa9291906137bb565b60405180910390f35b6102cd60048036038101906102c89190612d31565b6108e2565b6040516102da9190613ae3565b60405180910390f35b6102eb610987565b6040516102f89190613ae3565b60405180910390f35b61031b60048036038101906103169190612bd7565b61098d565b005b61033760048036038101906103329190612dbf565b6109ad565b6040516103449190613ae3565b60405180910390f35b61036760048036038101906103629190612dbf565b610a44565b6040516103749190613754565b60405180910390f35b61039760048036038101906103929190612b72565b610af6565b6040516103a49190613ae3565b60405180910390f35b6103b5610bae565b005b6103d160048036038101906103cc9190612b72565b610c36565b6040516103de91906137e4565b60405180910390f35b6103ef610db3565b6040516103fc9190613754565b60405180910390f35b61041f600480360381019061041a9190612dbf565b610ddc565b005b610429610e62565b6040516104369190613821565b60405180910390f35b61045960048036038101906104549190612ca1565b610ef4565b005b610463610f0a565b6040516104709190613754565b60405180910390f35b610493600480360381019061048e9190612b72565b610f34565b005b6104af60048036038101906104aa9190612c26565b61104f565b005b6104cb60048036038101906104c69190612dbf565b6110b1565b6040516104d89190613821565b60405180910390f35b6104e96110c3565b6040516104f69190613ae3565b60405180910390f35b61051960048036038101906105149190612cdd565b6110c9565b6040516105269190613ae3565b60405180910390f35b61054960048036038101906105449190612b9b565b611284565b6040516105569190613806565b60405180910390f35b61057960048036038101906105749190612b72565b611318565b005b60007f2a55205a000000000000000000000000000000000000000000000000000000007bffffffffffffffffffffffffffffffffffffffffffffffffffffffff1916827bffffffffffffffffffffffffffffffffffffffffffffffffffffffff191614806105ee57506105ed82611410565b5b9050919050565b60606001805461060490613dff565b80601f016020809104026020016040519081016040528092919081815260200182805461063090613dff565b801561067d5780601f106106525761010080835404028352916020019161067d565b820191906000526020600020905b81548152906001019060200180831161066057829003601f168201915b5050505050905090565b60006106928261148a565b6106d1576040517f08c379a00000000000000000000000000000000000000000000000000000000081526004016106c890613a03565b60405180910390fd5b6005600083815260200190815260200160002060009054906101000a900473ffffffffffffffffffffffffffffffffffffffff169050919050565b600061071782610a44565b90508073ffffffffffffffffffffffffffffffffffffffff168373ffffffffffffffffffffffffffffffffffffffff161415610788576040517f08c379a000000000000000000000000000000000000000000000000000000000815260040161077f90613a83565b60405180910390fd5b8073ffffffffffffffffffffffffffffffffffffffff166107a76114f6565b73ffffffffffffffffffffffffffffffffffffffff1614806107d657506107d5816107d06114f6565b611284565b5b610815576040517f08c379a000000000000000000000000000000000000000000000000000000000815260040161080c90613943565b60405180910390fd5b61081f83836114fe565b505050565b6000600980549050905090565b61084261083c6114f6565b826115b7565b610881576040517f08c379a000000000000000000000000000000000000000000000000000000000815260040161087890613aa3565b60405180910390fd5b61088c838383611695565b505050565b60008060006064600e54856108a69190613cbb565b6108b09190613c8a565b9050600d60009054906101000a900473ffffffffffffffffffffffffffffffffffffffff168192509250509250929050565b60006108ed83610af6565b821061092e576040517f08c379a000000000000000000000000000000000000000000000000000000000815260040161092590613843565b60405180910390fd5b600760008473ffffffffffffffffffffffffffffffffffffffff1673ffffffffffffffffffffffffffffffffffffffff168152602001908152602001600020600083815260200190815260200160002054905092915050565b611e6181565b6109a88383836040518060200160405280600081525061104f565b505050565b60006109b7610824565b82106109f8576040517f08c379a00000000000000000000000000000000000000000000000000000000081526004016109ef90613ac3565b60405180910390fd5b60098281548110610a32577f4e487b7100000000000000000000000000000000000000000000000000000000600052603260045260246000fd5b90600052602060002001549050919050565b6000806003600084815260200190815260200160002060009054906101000a900473ffffffffffffffffffffffffffffffffffffffff169050600073ffffffffffffffffffffffffffffffffffffffff168173ffffffffffffffffffffffffffffffffffffffff161415610aed576040517f08c379a0000000000000000000000000000000000000000000000000000000008152600401610ae490613983565b60405180910390fd5b80915050919050565b60008073ffffffffffffffffffffffffffffffffffffffff168273ffffffffffffffffffffffffffffffffffffffff161415610b67576040517f08c379a0000000000000000000000000000000000000000000000000000000008152600401610b5e90613963565b60405180910390fd5b600460008373ffffffffffffffffffffffffffffffffffffffff1673ffffffffffffffffffffffffffffffffffffffff168152602001908152602001600020549050919050565b610bb66114f6565b73ffffffffffffffffffffffffffffffffffffffff16610bd4610db3565b73ffffffffffffffffffffffffffffffffffffffff1614610c2a576040517f08c379a0000000000000000000000000000000000000000000000000000000008152600401610c2190613a23565b60405180910390fd5b610c3460006118f1565b565b60606000610c4383610af6565b905060008167ffffffffffffffff811115610c87577f4e487b7100000000000000000000000000000000000000000000000000000000600052604160045260246000fd5b604051908082528060200260200182016040528015610cb55781602001602082028036833780820191505090505b5090506000821415610d3a57600067ffffffffffffffff811115610d02577f4e487b7100000000000000000000000000000000000000000000000000000000600052604160045260246000fd5b604051908082528060200260200182016040528015610d305781602001602082028036833780820191505090505b5092505050610dae565b60005b82811015610da757610d4f85826108e2565b828281518110610d88577f4e487b7100000000000000000000000000000000000000000000000000000000600052603260045260246000fd5b6020026020010181815250508080610d9f90613e31565b915050610d3d565b5080925050505b919050565b60008060009054906101000a900473ffffffffffffffffffffffffffffffffffffffff16905090565b610de46114f6565b73ffffffffffffffffffffffffffffffffffffffff16610e02610db3565b73ffffffffffffffffffffffffffffffffffffffff1614610e58576040517f08c379a0000000000000000000000000000000000000000000000000000000008152600401610e4f90613a23565b60405180910390fd5b80600e8190555050565b606060028054610e7190613dff565b80601f0160208091040260200160405190810160405280929190818152602001828054610e9d90613dff565b8015610eea5780601f10610ebf57610100808354040283529160200191610eea565b820191906000526020600020905b815481529060010190602001808311610ecd57829003601f168201915b5050505050905090565b610f06610eff6114f6565b83836119b5565b5050565b6000600d60009054906101000a900473ffffffffffffffffffffffffffffffffffffffff16905090565b610f3c6114f6565b73ffffffffffffffffffffffffffffffffffffffff16610f5a610db3565b73ffffffffffffffffffffffffffffffffffffffff1614610fb0576040517f08c379a0000000000000000000000000000000000000000000000000000000008152600401610fa790613a23565b60405180910390fd5b600d60009054906101000a900473ffffffffffffffffffffffffffffffffffffffff1673ffffffffffffffffffffffffffffffffffffffff168173ffffffffffffffffffffffffffffffffffffffff16141561100b57600080fd5b80600d60006101000a81548173ffffffffffffffffffffffffffffffffffffffff021916908373ffffffffffffffffffffffffffffffffffffffff16021790555050565b61106061105a6114f6565b836115b7565b61109f576040517f08c379a000000000000000000000000000000000000000000000000000000000815260040161109690613aa3565b60405180910390fd5b6110ab84848484611b22565b50505050565b60606110bc82611b7e565b9050919050565b600e5481565b60006110d36114f6565b73ffffffffffffffffffffffffffffffffffffffff166110f1610db3565b73ffffffffffffffffffffffffffffffffffffffff1614611147576040517f08c379a000000000000000000000000000000000000000000000000000000000815260040161113e90613a23565b60405180910390fd5b611e61611152610824565b1115611193576040517f08c379a000000000000000000000000000000000000000000000000000000000815260040161118a906138a3565b60405180910390fd5b60008251116111a157600080fd5b6001600c836040516111b39190613719565b908152602001604051809103902060009054906101000a900460ff1660ff1614156111dd57600080fd5b6001600c836040516111ef9190613719565b908152602001604051809103902060006101000a81548160ff021916908360ff16021790555060006001611221610824565b61122b9190613c34565b90506112378482611cd0565b6112418184611cee565b7ff3cea5493d790af0133817606f7350a91d7f154ea52eaa79d179d4d231e501028185604051611272929190613afe565b60405180910390a18091505092915050565b6000600660008473ffffffffffffffffffffffffffffffffffffffff1673ffffffffffffffffffffffffffffffffffffffff16815260200190815260200160002060008373ffffffffffffffffffffffffffffffffffffffff1673ffffffffffffffffffffffffffffffffffffffff16815260200190815260200160002060009054906101000a900460ff16905092915050565b6113206114f6565b73ffffffffffffffffffffffffffffffffffffffff1661133e610db3565b73ffffffffffffffffffffffffffffffffffffffff1614611394576040517f08c379a000000000000000000000000000000000000000000000000000000000815260040161138b90613a23565b60405180910390fd5b600073ffffffffffffffffffffffffffffffffffffffff168173ffffffffffffffffffffffffffffffffffffffff161415611404576040517f08c379a00000000000000000000000000000000000000000000000000000000081526004016113fb90613883565b60405180910390fd5b61140d816118f1565b50565b60007f780e9d63000000000000000000000000000000000000000000000000000000007bffffffffffffffffffffffffffffffffffffffffffffffffffffffff1916827bffffffffffffffffffffffffffffffffffffffffffffffffffffffff19161480611483575061148282611d62565b5b9050919050565b60008073ffffffffffffffffffffffffffffffffffffffff166003600084815260200190815260200160002060009054906101000a900473ffffffffffffffffffffffffffffffffffffffff1673ffffffffffffffffffffffffffffffffffffffff1614159050919050565b600033905090565b816005600083815260200190815260200160002060006101000a81548173ffffffffffffffffffffffffffffffffffffffff021916908373ffffffffffffffffffffffffffffffffffffffff160217905550808273ffffffffffffffffffffffffffffffffffffffff1661157183610a44565b73ffffffffffffffffffffffffffffffffffffffff167f8c5be1e5ebec7d5bd14f71427d1e84f3dd0314c0f7b2291e5b200ac8c7c3b92560405160405180910390a45050565b60006115c28261148a565b611601576040517f08c379a00000000000000000000000000000000000000000000000000000000081526004016115f890613923565b60405180910390fd5b600061160c83610a44565b90508073ffffffffffffffffffffffffffffffffffffffff168473ffffffffffffffffffffffffffffffffffffffff16148061167b57508373ffffffffffffffffffffffffffffffffffffffff1661166384610687565b73ffffffffffffffffffffffffffffffffffffffff16145b8061168c575061168b8185611284565b5b91505092915050565b8273ffffffffffffffffffffffffffffffffffffffff166116b582610a44565b73ffffffffffffffffffffffffffffffffffffffff161461170b576040517f08c379a000000000000000000000000000000000000000000000000000000000815260040161170290613a43565b60405180910390fd5b600073ffffffffffffffffffffffffffffffffffffffff168273ffffffffffffffffffffffffffffffffffffffff16141561177b576040517f08c379a0000000000000000000000000000000000000000000000000000000008152600401611772906138e3565b60405180910390fd5b611786838383611e44565b6117916000826114fe565b6001600460008573ffffffffffffffffffffffffffffffffffffffff1673ffffffffffffffffffffffffffffffffffffffff16815260200190815260200160002060008282546117e19190613d15565b925050819055506001600460008473ffffffffffffffffffffffffffffffffffffffff1673ffffffffffffffffffffffffffffffffffffffff16815260200190815260200160002060008282546118389190613c34565b92505081905550816003600083815260200190815260200160002060006101000a81548173ffffffffffffffffffffffffffffffffffffffff021916908373ffffffffffffffffffffffffffffffffffffffff160217905550808273ffffffffffffffffffffffffffffffffffffffff168473ffffffffffffffffffffffffffffffffffffffff167fddf252ad1be2c89b69c2b068fc378daa952ba7f163c4a11628f55a4df523b3ef60405160405180910390a4505050565b60008060009054906101000a900473ffffffffffffffffffffffffffffffffffffffff169050816000806101000a81548173ffffffffffffffffffffffffffffffffffffffff021916908373ffffffffffffffffffffffffffffffffffffffff1602179055508173ffffffffffffffffffffffffffffffffffffffff168173ffffffffffffffffffffffffffffffffffffffff167f8be0079c531659141344cd1fd0a4f28419497f9722a3daafe3b4186f6b6457e060405160405180910390a35050565b8173ffffffffffffffffffffffffffffffffffffffff168373ffffffffffffffffffffffffffffffffffffffff161415611a24576040517f08c379a0000000000000000000000000000000000000000000000000000000008152600401611a1b90613903565b60405180910390fd5b80600660008573ffffffffffffffffffffffffffffffffffffffff1673ffffffffffffffffffffffffffffffffffffffff16815260200190815260200160002060008473ffffffffffffffffffffffffffffffffffffffff1673ffffffffffffffffffffffffffffffffffffffff16815260200190815260200160002060006101000a81548160ff0219169083151502179055508173ffffffffffffffffffffffffffffffffffffffff168373ffffffffffffffffffffffffffffffffffffffff167f17307eab39ab6107e8899845ad3d59bd9653f200f220920489ca2b5937696c3183604051611b159190613806565b60405180910390a3505050565b611b2d848484611695565b611b3984848484611e54565b611b78576040517f08c379a0000000000000000000000000000000000000000000000000000000008152600401611b6f90613863565b60405180910390fd5b50505050565b6060611b898261148a565b611bc8576040517f08c379a0000000000000000000000000000000000000000000000000000000008152600401611bbf906139e3565b60405180910390fd5b6000600b60008481526020019081526020016000208054611be890613dff565b80601f0160208091040260200160405190810160405280929190818152602001828054611c1490613dff565b8015611c615780601f10611c3657610100808354040283529160200191611c61565b820191906000526020600020905b815481529060010190602001808311611c4457829003601f168201915b505050505090506000611c72611feb565b9050600081511415611c88578192505050611ccb565b600082511115611cbd578082604051602001611ca5929190613730565b60405160208183030381529060405292505050611ccb565b611cc68461200b565b925050505b919050565b611cea8282604051806020016040528060008152506120b2565b5050565b611cf78261148a565b611d36576040517f08c379a0000000000000000000000000000000000000000000000000000000008152600401611d2d906139a3565b60405180910390fd5b80600b60008481526020019081526020016000209080519060200190611d5d929190612996565b505050565b60007f80ac58cd000000000000000000000000000000000000000000000000000000007bffffffffffffffffffffffffffffffffffffffffffffffffffffffff1916827bffffffffffffffffffffffffffffffffffffffffffffffffffffffff19161480611e2d57507f5b5e139f000000000000000000000000000000000000000000000000000000007bffffffffffffffffffffffffffffffffffffffffffffffffffffffff1916827bffffffffffffffffffffffffffffffffffffffffffffffffffffffff1916145b80611e3d5750611e3c8261210d565b5b9050919050565b611e4f838383612177565b505050565b6000611e758473ffffffffffffffffffffffffffffffffffffffff1661228b565b15611fde578373ffffffffffffffffffffffffffffffffffffffff1663150b7a02611e9e6114f6565b8786866040518563ffffffff1660e01b8152600401611ec0949392919061376f565b602060405180830381600087803b158015611eda57600080fd5b505af1925050508015611f0b57506040513d601f19601f82011682018060405250810190611f089190612d96565b60015b611f8e573d8060008114611f3b576040519150601f19603f3d011682016040523d82523d6000602084013e611f40565b606091505b50600081511415611f86576040517f08c379a0000000000000000000000000000000000000000000000000000000008152600401611f7d90613863565b60405180910390fd5b805181602001fd5b63150b7a0260e01b7bffffffffffffffffffffffffffffffffffffffffffffffffffffffff1916817bffffffffffffffffffffffffffffffffffffffffffffffffffffffff191614915050611fe3565b600190505b949350505050565b6060604051806060016040528060228152602001613fd560229139905090565b60606120168261148a565b612055576040517f08c379a000000000000000000000000000000000000000000000000000000000815260040161204c90613a63565b60405180910390fd5b600061205f611feb565b9050600081511161207f57604051806020016040528060008152506120aa565b806120898461229e565b60405160200161209a929190613730565b6040516020818303038152906040525b915050919050565b6120bc838361244b565b6120c96000848484611e54565b612108576040517f08c379a00000000000000000000000000000000000000000000000000000000081526004016120ff90613863565b60405180910390fd5b505050565b60007f01ffc9a7000000000000000000000000000000000000000000000000000000007bffffffffffffffffffffffffffffffffffffffffffffffffffffffff1916827bffffffffffffffffffffffffffffffffffffffffffffffffffffffff1916149050919050565b612182838383612619565b600073ffffffffffffffffffffffffffffffffffffffff168373ffffffffffffffffffffffffffffffffffffffff1614156121c5576121c08161261e565b612204565b8173ffffffffffffffffffffffffffffffffffffffff168373ffffffffffffffffffffffffffffffffffffffff1614612203576122028382612667565b5b5b600073ffffffffffffffffffffffffffffffffffffffff168273ffffffffffffffffffffffffffffffffffffffff16141561224757612242816127d4565b612286565b8273ffffffffffffffffffffffffffffffffffffffff168273ffffffffffffffffffffffffffffffffffffffff1614612285576122848282612917565b5b5b505050565b600080823b905060008111915050919050565b606060008214156122e6576040518060400160405280600181526020017f30000000000000000000000000000000000000000000000000000000000000008152509050612446565b600082905060005b6000821461231857808061230190613e31565b915050600a826123119190613c8a565b91506122ee565b60008167ffffffffffffffff81111561235a577f4e487b7100000000000000000000000000000000000000000000000000000000600052604160045260246000fd5b6040519080825280601f01601f19166020018201604052801561238c5781602001600182028036833780820191505090505b5090505b6000851461243f576001826123a59190613d15565b9150600a856123b49190613e7a565b60306123c09190613c34565b60f81b8183815181106123fc577f4e487b7100000000000000000000000000000000000000000000000000000000600052603260045260246000fd5b60200101907effffffffffffffffffffffffffffffffffffffffffffffffffffffffffffff1916908160001a905350600a856124389190613c8a565b9450612390565b8093505050505b919050565b600073ffffffffffffffffffffffffffffffffffffffff168273ffffffffffffffffffffffffffffffffffffffff1614156124bb576040517f08c379a00000000000000000000000000000000000000000000000000000000081526004016124b2906139c3565b60405180910390fd5b6124c48161148a565b15612504576040517f08c379a00000000000000000000000000000000000000000000000000000000081526004016124fb906138c3565b60405180910390fd5b61251060008383611e44565b6001600460008473ffffffffffffffffffffffffffffffffffffffff1673ffffffffffffffffffffffffffffffffffffffff16815260200190815260200160002060008282546125609190613c34565b92505081905550816003600083815260200190815260200160002060006101000a81548173ffffffffffffffffffffffffffffffffffffffff021916908373ffffffffffffffffffffffffffffffffffffffff160217905550808273ffffffffffffffffffffffffffffffffffffffff16600073ffffffffffffffffffffffffffffffffffffffff167fddf252ad1be2c89b69c2b068fc378daa952ba7f163c4a11628f55a4df523b3ef60405160405180910390a45050565b505050565b600980549050600a600083815260200190815260200160002081905550600981908060018154018082558091505060019003906000526020600020016000909190919091505550565b6000600161267484610af6565b61267e9190613d15565b9050600060086000848152602001908152602001600020549050818114612763576000600760008673ffffffffffffffffffffffffffffffffffffffff1673ffffffffffffffffffffffffffffffffffffffff168152602001908152602001600020600084815260200190815260200160002054905080600760008773ffffffffffffffffffffffffffffffffffffffff1673ffffffffffffffffffffffffffffffffffffffff168152602001908152602001600020600084815260200190815260200160002081905550816008600083815260200190815260200160002081905550505b6008600084815260200190815260200160002060009055600760008573ffffffffffffffffffffffffffffffffffffffff1673ffffffffffffffffffffffffffffffffffffffff16815260200190815260200160002060008381526020019081526020016000206000905550505050565b600060016009805490506127e89190613d15565b90506000600a600084815260200190815260200160002054905060006009838154811061283e577f4e487b7100000000000000000000000000000000000000000000000000000000600052603260045260246000fd5b906000526020600020015490508060098381548110612886577f4e487b7100000000000000000000000000000000000000000000000000000000600052603260045260246000fd5b906000526020600020018190555081600a600083815260200190815260200160002081905550600a60008581526020019081526020016000206000905560098054806128fb577f4e487b7100000000000000000000000000000000000000000000000000000000600052603160045260246000fd5b6001900381819060005260206000200160009055905550505050565b600061292283610af6565b905081600760008573ffffffffffffffffffffffffffffffffffffffff1673ffffffffffffffffffffffffffffffffffffffff168152602001908152602001600020600083815260200190815260200160002081905550806008600084815260200190815260200160002081905550505050565b8280546129a290613dff565b90600052602060002090601f0160209004810192826129c45760008555612a0b565b82601f106129dd57805160ff1916838001178555612a0b565b82800160010185558215612a0b579182015b82811115612a0a5782518255916020019190600101906129ef565b5b509050612a189190612a1c565b5090565b5b80821115612a35576000816000905550600101612a1d565b5090565b6000612a4c612a4784613b58565b613b27565b905082815260208101848484011115612a6457600080fd5b612a6f848285613dbd565b509392505050565b6000612a8a612a8584613b88565b613b27565b905082815260208101848484011115612aa257600080fd5b612aad848285613dbd565b509392505050565b600081359050612ac481613f78565b92915050565b600081359050612ad981613f8f565b92915050565b600081359050612aee81613fa6565b92915050565b600081519050612b0381613fa6565b92915050565b600082601f830112612b1a57600080fd5b8135612b2a848260208601612a39565b91505092915050565b600082601f830112612b4457600080fd5b8135612b54848260208601612a77565b91505092915050565b600081359050612b6c81613fbd565b92915050565b600060208284031215612b8457600080fd5b6000612b9284828501612ab5565b91505092915050565b60008060408385031215612bae57600080fd5b6000612bbc85828601612ab5565b9250506020612bcd85828601612ab5565b9150509250929050565b600080600060608486031215612bec57600080fd5b6000612bfa86828701612ab5565b9350506020612c0b86828701612ab5565b9250506040612c1c86828701612b5d565b9150509250925092565b60008060008060808587031215612c3c57600080fd5b6000612c4a87828801612ab5565b9450506020612c5b87828801612ab5565b9350506040612c6c87828801612b5d565b925050606085013567ffffffffffffffff811115612c8957600080fd5b612c9587828801612b09565b91505092959194509250565b60008060408385031215612cb457600080fd5b6000612cc285828601612ab5565b9250506020612cd385828601612aca565b9150509250929050565b60008060408385031215612cf057600080fd5b6000612cfe85828601612ab5565b925050602083013567ffffffffffffffff811115612d1b57600080fd5b612d2785828601612b33565b9150509250929050565b60008060408385031215612d4457600080fd5b6000612d5285828601612ab5565b9250506020612d6385828601612b5d565b9150509250929050565b600060208284031215612d7f57600080fd5b6000612d8d84828501612adf565b91505092915050565b600060208284031215612da857600080fd5b6000612db684828501612af4565b91505092915050565b600060208284031215612dd157600080fd5b6000612ddf84828501612b5d565b91505092915050565b60008060408385031215612dfb57600080fd5b6000612e0985828601612b5d565b9250506020612e1a85828601612b5d565b9150509250929050565b6000612e3083836136fb565b60208301905092915050565b612e4581613d49565b82525050565b6000612e5682613bc8565b612e608185613bf6565b9350612e6b83613bb8565b8060005b83811015612e9c578151612e838882612e24565b9750612e8e83613be9565b925050600181019050612e6f565b5085935050505092915050565b612eb281613d5b565b82525050565b6000612ec382613bd3565b612ecd8185613c07565b9350612edd818560208601613dcc565b612ee681613f67565b840191505092915050565b6000612efc82613bde565b612f068185613c18565b9350612f16818560208601613dcc565b612f1f81613f67565b840191505092915050565b6000612f3582613bde565b612f3f8185613c29565b9350612f4f818560208601613dcc565b80840191505092915050565b6000612f68602b83613c18565b91507f455243373231456e756d657261626c653a206f776e657220696e646578206f7560008301527f74206f6620626f756e64730000000000000000000000000000000000000000006020830152604082019050919050565b6000612fce603283613c18565b91507f4552433732313a207472616e7366657220746f206e6f6e20455243373231526560008301527f63656976657220696d706c656d656e74657200000000000000000000000000006020830152604082019050919050565b6000613034602683613c18565b91507f4f776e61626c653a206e6577206f776e657220697320746865207a65726f206160008301527f64647265737300000000000000000000000000000000000000000000000000006020830152604082019050919050565b600061309a601183613c18565b91507f416c6c20746f6b656e73206d696e7465640000000000000000000000000000006000830152602082019050919050565b60006130da601c83613c18565b91507f4552433732313a20746f6b656e20616c7265616479206d696e746564000000006000830152602082019050919050565b600061311a602483613c18565b91507f4552433732313a207472616e7366657220746f20746865207a65726f2061646460008301527f72657373000000000000000000000000000000000000000000000000000000006020830152604082019050919050565b6000613180601983613c18565b91507f4552433732313a20617070726f766520746f2063616c6c6572000000000000006000830152602082019050919050565b60006131c0602c83613c18565b91507f4552433732313a206f70657261746f7220717565727920666f72206e6f6e657860008301527f697374656e7420746f6b656e00000000000000000000000000000000000000006020830152604082019050919050565b6000613226603883613c18565b91507f4552433732313a20617070726f76652063616c6c6572206973206e6f74206f7760008301527f6e6572206e6f7220617070726f76656420666f7220616c6c00000000000000006020830152604082019050919050565b600061328c602a83613c18565b91507f4552433732313a2062616c616e636520717565727920666f7220746865207a6560008301527f726f2061646472657373000000000000000000000000000000000000000000006020830152604082019050919050565b60006132f2602983613c18565b91507f4552433732313a206f776e657220717565727920666f72206e6f6e657869737460008301527f656e7420746f6b656e00000000000000000000000000000000000000000000006020830152604082019050919050565b6000613358602e83613c18565b91507f45524337323155524953746f726167653a2055524920736574206f66206e6f6e60008301527f6578697374656e7420746f6b656e0000000000000000000000000000000000006020830152604082019050919050565b60006133be602083613c18565b91507f4552433732313a206d696e7420746f20746865207a65726f20616464726573736000830152602082019050919050565b60006133fe603183613c18565b91507f45524337323155524953746f726167653a2055524920717565727920666f722060008301527f6e6f6e6578697374656e7420746f6b656e0000000000000000000000000000006020830152604082019050919050565b6000613464602c83613c18565b91507f4552433732313a20617070726f76656420717565727920666f72206e6f6e657860008301527f697374656e7420746f6b656e00000000000000000000000000000000000000006020830152604082019050919050565b60006134ca602083613c18565b91507f4f776e61626c653a2063616c6c6572206973206e6f7420746865206f776e65726000830152602082019050919050565b600061350a602983613c18565b91507f4552433732313a207472616e73666572206f6620746f6b656e2074686174206960008301527f73206e6f74206f776e00000000000000000000000000000000000000000000006020830152604082019050919050565b6000613570602f83613c18565b91507f4552433732314d657461646174613a2055524920717565727920666f72206e6f60008301527f6e6578697374656e7420746f6b656e00000000000000000000000000000000006020830152604082019050919050565b60006135d6602183613c18565b91507f4552433732313a20617070726f76616c20746f2063757272656e74206f776e6560008301527f72000000000000000000000000000000000000000000000000000000000000006020830152604082019050919050565b600061363c603183613c18565b91507f4552433732313a207472616e736665722063616c6c6572206973206e6f74206f60008301527f776e6572206e6f7220617070726f7665640000000000000000000000000000006020830152604082019050919050565b60006136a2602c83613c18565b91507f455243373231456e756d657261626c653a20676c6f62616c20696e646578206f60008301527f7574206f6620626f756e647300000000000000000000000000000000000000006020830152604082019050919050565b61370481613db3565b82525050565b61371381613db3565b82525050565b60006137258284612f2a565b915081905092915050565b600061373c8285612f2a565b91506137488284612f2a565b91508190509392505050565b60006020820190506137696000830184612e3c565b92915050565b60006080820190506137846000830187612e3c565b6137916020830186612e3c565b61379e604083018561370a565b81810360608301526137b08184612eb8565b905095945050505050565b60006040820190506137d06000830185612e3c565b6137dd602083018461370a565b9392505050565b600060208201905081810360008301526137fe8184612e4b565b905092915050565b600060208201905061381b6000830184612ea9565b92915050565b6000602082019050818103600083015261383b8184612ef1565b905092915050565b6000602082019050818103600083015261385c81612f5b565b9050919050565b6000602082019050818103600083015261387c81612fc1565b9050919050565b6000602082019050818103600083015261389c81613027565b9050919050565b600060208201905081810360008301526138bc8161308d565b9050919050565b600060208201905081810360008301526138dc816130cd565b9050919050565b600060208201905081810360008301526138fc8161310d565b9050919050565b6000602082019050818103600083015261391c81613173565b9050919050565b6000602082019050818103600083015261393c816131b3565b9050919050565b6000602082019050818103600083015261395c81613219565b9050919050565b6000602082019050818103600083015261397c8161327f565b9050919050565b6000602082019050818103600083015261399c816132e5565b9050919050565b600060208201905081810360008301526139bc8161334b565b9050919050565b600060208201905081810360008301526139dc816133b1565b9050919050565b600060208201905081810360008301526139fc816133f1565b9050919050565b60006020820190508181036000830152613a1c81613457565b9050919050565b60006020820190508181036000830152613a3c816134bd565b9050919050565b60006020820190508181036000830152613a5c816134fd565b9050919050565b60006020820190508181036000830152613a7c81613563565b9050919050565b60006020820190508181036000830152613a9c816135c9565b9050919050565b60006020820190508181036000830152613abc8161362f565b9050919050565b60006020820190508181036000830152613adc81613695565b9050919050565b6000602082019050613af8600083018461370a565b92915050565b6000604082019050613b13600083018561370a565b613b206020830184612e3c565b9392505050565b6000604051905081810181811067ffffffffffffffff82111715613b4e57613b4d613f38565b5b8060405250919050565b600067ffffffffffffffff821115613b7357613b72613f38565b5b601f19601f8301169050602081019050919050565b600067ffffffffffffffff821115613ba357613ba2613f38565b5b601f19601f8301169050602081019050919050565b6000819050602082019050919050565b600081519050919050565b600081519050919050565b600081519050919050565b6000602082019050919050565b600082825260208201905092915050565b600082825260208201905092915050565b600082825260208201905092915050565b600081905092915050565b6000613c3f82613db3565b9150613c4a83613db3565b9250827fffffffffffffffffffffffffffffffffffffffffffffffffffffffffffffffff03821115613c7f57613c7e613eab565b5b828201905092915050565b6000613c9582613db3565b9150613ca083613db3565b925082613cb057613caf613eda565b5b828204905092915050565b6000613cc682613db3565b9150613cd183613db3565b9250817fffffffffffffffffffffffffffffffffffffffffffffffffffffffffffffffff0483118215151615613d0a57613d09613eab565b5b828202905092915050565b6000613d2082613db3565b9150613d2b83613db3565b925082821015613d3e57613d3d613eab565b5b828203905092915050565b6000613d5482613d93565b9050919050565b60008115159050919050565b60007fffffffff0000000000000000000000000000000000000000000000000000000082169050919050565b600073ffffffffffffffffffffffffffffffffffffffff82169050919050565b6000819050919050565b82818337600083830152505050565b60005b83811015613dea578082015181840152602081019050613dcf565b83811115613df9576000848401525b50505050565b60006002820490506001821680613e1757607f821691505b60208210811415613e2b57613e2a613f09565b5b50919050565b6000613e3c82613db3565b91507fffffffffffffffffffffffffffffffffffffffffffffffffffffffffffffffff821415613e6f57613e6e613eab565b5b600182019050919050565b6000613e8582613db3565b9150613e9083613db3565b925082613ea057613e9f613eda565b5b828206905092915050565b7f4e487b7100000000000000000000000000000000000000000000000000000000600052601160045260246000fd5b7f4e487b7100000000000000000000000000000000000000000000000000000000600052601260045260246000fd5b7f4e487b7100000000000000000000000000000000000000000000000000000000600052602260045260246000fd5b7f4e487b7100000000000000000000000000000000000000000000000000000000600052604160045260246000fd5b6000601f19601f8301169050919050565b613f8181613d49565b8114613f8c57600080fd5b50565b613f9881613d5b565b8114613fa357600080fd5b50565b613faf81613d67565b8114613fba57600080fd5b50565b613fc681613db3565b8114613fd157600080fd5b5056fe68747470733a2f2f676174657761792e70696e6174612e636c6f75642f697066732fa2646970667358221220862a3ce4273271f6ddb8e1b91e828e2ff35b3fb9f958c04be6f1773627948f0764736f6c63430008000033",
  "linkReferences": {},
  "deployedLinkReferences": {}
}