{
  "_format": "hh-sol-artifact-1",
  "contractName": "RoyaltiesPayment",
  "sourceName": "contracts/RoyaltiesPayment.sol",
  "abi": [
    {
      "inputs": [],
      "stateMutability": "nonpayable",
      "type": "constructor"
    },
    {
      "anonymous": false,
      "inputs": [
        {
          "indexed": false,
          "internalType": "address",
          "name": "addressOfbalaces",
          "type": "address"
        },
        {
          "indexed": false,
          "internalType": "uint256",
          "name": "percentage",
          "type": "uint256"
        }
      ],
      "name": "Log",
      "type": "event"
    },
    {
      "anonymous": false,
      "inputs": [
        {
          "indexed": true,
          "internalType": "address",
          "name": "previousOwner",
          "type": "address"
        },
        {
          "indexed": true,
          "internalType": "address",
          "name": "newOwner",
          "type": "address"
        }
      ],
      "name": "OwnershipTransferred",
      "type": "event"
    },
    {
      "inputs": [
        {
          "internalType": "address",
          "name": "",
          "type": "address"
        }
      ],
      "name": "balances",
      "outputs": [
        {
          "internalType": "uint256",
          "name": "",
          "type": "uint256"
        }
      ],
      "stateMutability": "view",
      "type": "function"
    },
    {
      "inputs": [],
      "name": "deleteTable",
      "outputs": [],
      "stateMutability": "nonpayable",
      "type": "function"
    },
    {
      "inputs": [],
      "name": "getTotalPercent",
      "outputs": [
        {
          "internalType": "uint256",
          "name": "",
          "type": "uint256"
        }
      ],
      "stateMutability": "view",
      "type": "function"
    },
    {
      "inputs": [],
      "name": "logForBalances",
      "outputs": [],
      "stateMutability": "nonpayable",
      "type": "function"
    },
    {
      "inputs": [],
      "name": "owner",
      "outputs": [
        {
          "internalType": "address",
          "name": "",
          "type": "address"
        }
      ],
      "stateMutability": "view",
      "type": "function"
    },
    {
      "inputs": [],
      "name": "payAll",
      "outputs": [],
      "stateMutability": "nonpayable",
      "type": "function"
    },
    {
      "inputs": [
        {
          "internalType": "uint256",
          "name": "",
          "type": "uint256"
        }
      ],
      "name": "payees",
      "outputs": [
        {
          "internalType": "address",
          "name": "",
          "type": "address"
        }
      ],
      "stateMutability": "view",
      "type": "function"
    },
    {
      "inputs": [],
      "name": "renounceOwnership",
      "outputs": [],
      "stateMutability": "nonpayable",
      "type": "function"
    },
    {
      "inputs": [
        {
          "internalType": "address",
          "name": "rightholder",
          "type": "address"
        },
        {
          "internalType": "uint256",
          "name": "perc",
          "type": "uint256"
        }
      ],
      "name": "setRoyaltyTable",
      "outputs": [],
      "stateMutability": "nonpayable",
      "type": "function"
    },
    {
      "inputs": [],
      "name": "totalAmount",
      "outputs": [
        {
          "internalType": "uint256",
          "name": "",
          "type": "uint256"
        }
      ],
      "stateMutability": "view",
      "type": "function"
    },
    {
      "inputs": [
        {
          "internalType": "address",
          "name": "newOwner",
          "type": "address"
        }
      ],
      "name": "transferOwnership",
      "outputs": [],
      "stateMutability": "nonpayable",
      "type": "function"
    },
    {
      "stateMutability": "payable",
      "type": "receive"
    }
  ],
  "bytecode": "0x608060405234801561001057600080fd5b5061002d61002261003260201b60201c565b61003a60201b60201c565b6100fe565b600033905090565b60008060009054906101000a900473ffffffffffffffffffffffffffffffffffffffff169050816000806101000a81548173ffffffffffffffffffffffffffffffffffffffff021916908373ffffffffffffffffffffffffffffffffffffffff1602179055508173ffffffffffffffffffffffffffffffffffffffff168173ffffffffffffffffffffffffffffffffffffffff167f8be0079c531659141344cd1fd0a4f28419497f9722a3daafe3b4186f6b6457e060405160405180910390a35050565b6111108061010d6000396000f3fe6080604052600436106100a05760003560e01c80634bb0a2ae116100645780634bb0a2ae146101865780635806beaf146101af57806363037b0c146101c6578063715018a6146102035780638da5cb5b1461021a578063f2fde38b14610245576100c0565b80631a39d8ef146100c557806327e235e3146100f05780632b9292f11461012d57806339cbdf2c146101445780633c8e3b521461015b576100c0565b366100c05734600260008282546100b79190610ee8565b92505081905550005b600080fd5b3480156100d157600080fd5b506100da61026e565b6040516100e79190610eb1565b60405180910390f35b3480156100fc57600080fd5b5061011760048036038101906101129190610cac565b610274565b6040516101249190610eb1565b60405180910390f35b34801561013957600080fd5b5061014261028c565b005b34801561015057600080fd5b50610159610398565b005b34801561016757600080fd5b50610170610424565b60405161017d9190610eb1565b60405180910390f35b34801561019257600080fd5b506101ad60048036038101906101a89190610cd5565b61058b565b005b3480156101bb57600080fd5b506101c46106b2565b005b3480156101d257600080fd5b506101ed60048036038101906101e89190610d11565b610738565b6040516101fa9190610e2d565b60405180910390f35b34801561020f57600080fd5b50610218610777565b005b34801561022657600080fd5b5061022f6107ff565b60405161023c9190610e2d565b60405180910390f35b34801561025157600080fd5b5061026c60048036038101906102679190610cac565b610828565b005b60025481565b60036020528060005260406000206000915090505481565b60005b600180549050811015610395576000600182815481106102d8577f4e487b7100000000000000000000000000000000000000000000000000000000600052603260045260246000fd5b9060005260206000200160009054906101000a900473ffffffffffffffffffffffffffffffffffffffff1690506000600360008373ffffffffffffffffffffffffffffffffffffffff1673ffffffffffffffffffffffffffffffffffffffff1681526020019081526020016000205490507ff950957d2407bed19dc99b718b46b4ce6090c05589006dfb86fd22c34865b23e828260405161037a929190610e48565b60405180910390a150508061038e90611005565b905061028f565b50565b6103a0610920565b73ffffffffffffffffffffffffffffffffffffffff166103be6107ff565b73ffffffffffffffffffffffffffffffffffffffff1614610414576040517f08c379a000000000000000000000000000000000000000000000000000000000815260040161040b90610e91565b60405180910390fd5b600160006104229190610c44565b565b600061042e610920565b73ffffffffffffffffffffffffffffffffffffffff1661044c6107ff565b73ffffffffffffffffffffffffffffffffffffffff16146104a2576040517f08c379a000000000000000000000000000000000000000000000000000000000815260040161049990610e91565b60405180910390fd5b6000805b600180549050811015610583576000600182815481106104ef577f4e487b7100000000000000000000000000000000000000000000000000000000600052603260045260246000fd5b9060005260206000200160009054906101000a900473ffffffffffffffffffffffffffffffffffffffff1690506000600360008373ffffffffffffffffffffffffffffffffffffffff1673ffffffffffffffffffffffffffffffffffffffff168152602001908152602001600020549050808461056c9190610ee8565b93505050808061057b90611005565b9150506104a6565b508091505090565b610593610920565b73ffffffffffffffffffffffffffffffffffffffff166105b16107ff565b73ffffffffffffffffffffffffffffffffffffffff1614610607576040517f08c379a00000000000000000000000000000000000000000000000000000000081526004016105fe90610e91565b60405180910390fd5b6001829080600181540180825580915050600190039060005260206000200160009091909190916101000a81548173ffffffffffffffffffffffffffffffffffffffff021916908373ffffffffffffffffffffffffffffffffffffffff16021790555080600360008473ffffffffffffffffffffffffffffffffffffffff1673ffffffffffffffffffffffffffffffffffffffff168152602001908152602001600020819055505050565b6106ba610920565b73ffffffffffffffffffffffffffffffffffffffff166106d86107ff565b73ffffffffffffffffffffffffffffffffffffffff161461072e576040517f08c379a000000000000000000000000000000000000000000000000000000000815260040161072590610e91565b60405180910390fd5b610736610928565b565b6001818154811061074857600080fd5b906000526020600020016000915054906101000a900473ffffffffffffffffffffffffffffffffffffffff1681565b61077f610920565b73ffffffffffffffffffffffffffffffffffffffff1661079d6107ff565b73ffffffffffffffffffffffffffffffffffffffff16146107f3576040517f08c379a00000000000000000000000000000000000000000000000000000000081526004016107ea90610e91565b60405180910390fd5b6107fd6000610b80565b565b60008060009054906101000a900473ffffffffffffffffffffffffffffffffffffffff16905090565b610830610920565b73ffffffffffffffffffffffffffffffffffffffff1661084e6107ff565b73ffffffffffffffffffffffffffffffffffffffff16146108a4576040517f08c379a000000000000000000000000000000000000000000000000000000000815260040161089b90610e91565b60405180910390fd5b600073ffffffffffffffffffffffffffffffffffffffff168173ffffffffffffffffffffffffffffffffffffffff161415610914576040517f08c379a000000000000000000000000000000000000000000000000000000000815260040161090b90610e71565b60405180910390fd5b61091d81610b80565b50565b600033905090565b60006002541115610b7e576000805b600180549050811015610a1457600060018281548110610980577f4e487b7100000000000000000000000000000000000000000000000000000000600052603260045260246000fd5b9060005260206000200160009054906101000a900473ffffffffffffffffffffffffffffffffffffffff1690506000600360008373ffffffffffffffffffffffffffffffffffffffff1673ffffffffffffffffffffffffffffffffffffffff16815260200190815260200160002054905080846109fd9190610ee8565b935050508080610a0c90611005565b915050610937565b506064811415610b7c5760005b600180549050811015610b7257600060018281548110610a6a577f4e487b7100000000000000000000000000000000000000000000000000000000600052603260045260246000fd5b9060005260206000200160009054906101000a900473ffffffffffffffffffffffffffffffffffffffff1690506000600360008373ffffffffffffffffffffffffffffffffffffffff1673ffffffffffffffffffffffffffffffffffffffff1681526020019081526020016000205490508173ffffffffffffffffffffffffffffffffffffffff16816064600254610b029190610f3e565b610b0c9190610f6f565b604051610b1890610e18565b60006040518083038185875af1925050503d8060008114610b55576040519150601f19603f3d011682016040523d82523d6000602084013e610b5a565b606091505b50505050508080610b6a90611005565b915050610a21565b5060006002819055505b505b565b60008060009054906101000a900473ffffffffffffffffffffffffffffffffffffffff169050816000806101000a81548173ffffffffffffffffffffffffffffffffffffffff021916908373ffffffffffffffffffffffffffffffffffffffff1602179055508173ffffffffffffffffffffffffffffffffffffffff168173ffffffffffffffffffffffffffffffffffffffff167f8be0079c531659141344cd1fd0a4f28419497f9722a3daafe3b4186f6b6457e060405160405180910390a35050565b5080546000825590600052602060002090810190610c629190610c65565b50565b5b80821115610c7e576000816000905550600101610c66565b5090565b600081359050610c91816110ac565b92915050565b600081359050610ca6816110c3565b92915050565b600060208284031215610cbe57600080fd5b6000610ccc84828501610c82565b91505092915050565b60008060408385031215610ce857600080fd5b6000610cf685828601610c82565b9250506020610d0785828601610c97565b9150509250929050565b600060208284031215610d2357600080fd5b6000610d3184828501610c97565b91505092915050565b610d4381610fc9565b82525050565b6000610d56602683610ed7565b91507f4f776e61626c653a206e6577206f776e657220697320746865207a65726f206160008301527f64647265737300000000000000000000000000000000000000000000000000006020830152604082019050919050565b6000610dbc602083610ed7565b91507f4f776e61626c653a2063616c6c6572206973206e6f7420746865206f776e65726000830152602082019050919050565b6000610dfc600083610ecc565b9150600082019050919050565b610e1281610ffb565b82525050565b6000610e2382610def565b9150819050919050565b6000602082019050610e426000830184610d3a565b92915050565b6000604082019050610e5d6000830185610d3a565b610e6a6020830184610e09565b9392505050565b60006020820190508181036000830152610e8a81610d49565b9050919050565b60006020820190508181036000830152610eaa81610daf565b9050919050565b6000602082019050610ec66000830184610e09565b92915050565b600081905092915050565b600082825260208201905092915050565b6000610ef382610ffb565b9150610efe83610ffb565b9250827fffffffffffffffffffffffffffffffffffffffffffffffffffffffffffffffff03821115610f3357610f3261104e565b5b828201905092915050565b6000610f4982610ffb565b9150610f5483610ffb565b925082610f6457610f6361107d565b5b828204905092915050565b6000610f7a82610ffb565b9150610f8583610ffb565b9250817fffffffffffffffffffffffffffffffffffffffffffffffffffffffffffffffff0483118215151615610fbe57610fbd61104e565b5b828202905092915050565b6000610fd482610fdb565b9050919050565b600073ffffffffffffffffffffffffffffffffffffffff82169050919050565b6000819050919050565b600061101082610ffb565b91507fffffffffffffffffffffffffffffffffffffffffffffffffffffffffffffffff8214156110435761104261104e565b5b600182019050919050565b7f4e487b7100000000000000000000000000000000000000000000000000000000600052601160045260246000fd5b7f4e487b7100000000000000000000000000000000000000000000000000000000600052601260045260246000fd5b6110b581610fc9565b81146110c057600080fd5b50565b6110cc81610ffb565b81146110d757600080fd5b5056fea26469706673582212203b64962b5c64cbcb0181f24f84985d41e0a44ae6d8f312a7489073026caf0ae964736f6c63430008000033",
  "linkReferences": {},
  "deployedLinkReferences": {}
}