{
  "_format": "hh-sol-artifact-1",
  "contractName": "Marketplace",
  "sourceName": "contracts/Marketplace.sol",
  "abi": [
    {
      "inputs": [
        {
          "internalType": "address",
          "name": "tokenContractAddress",
          "type": "address"
        }
      ],
      "stateMutability": "nonpayable",
      "type": "constructor"
    },
    {
      "anonymous": false,
      "inputs": [
        {
          "indexed": false,
          "internalType": "uint256",
          "name": "tokenId",
          "type": "uint256"
        },
        {
          "indexed": false,
          "internalType": "address",
          "name": "buyer",
          "type": "address"
        }
      ],
      "name": "BuyOfferWithdrawn",
      "type": "event"
    },
    {
      "anonymous": false,
      "inputs": [
        {
          "indexed": false,
          "internalType": "uint256",
          "name": "tokenId",
          "type": "uint256"
        },
        {
          "indexed": false,
          "internalType": "address",
          "name": "buyer",
          "type": "address"
        },
        {
          "indexed": false,
          "internalType": "uint256",
          "name": "value",
          "type": "uint256"
        }
      ],
      "name": "NewBuyOffer",
      "type": "event"
    },
    {
      "anonymous": false,
      "inputs": [
        {
          "indexed": false,
          "internalType": "uint256",
          "name": "tokenId",
          "type": "uint256"
        },
        {
          "indexed": false,
          "internalType": "address",
          "name": "seller",
          "type": "address"
        },
        {
          "indexed": false,
          "internalType": "uint256",
          "name": "value",
          "type": "uint256"
        }
      ],
      "name": "NewSellOffer",
      "type": "event"
    },
    {
      "anonymous": false,
      "inputs": [
        {
          "indexed": false,
          "internalType": "uint256",
          "name": "tokenId",
          "type": "uint256"
        },
        {
          "indexed": false,
          "internalType": "uint256",
          "name": "value",
          "type": "uint256"
        }
      ],
      "name": "RoyaltiesPaid",
      "type": "event"
    },
    {
      "anonymous": false,
      "inputs": [
        {
          "indexed": false,
          "internalType": "uint256",
          "name": "tokenId",
          "type": "uint256"
        },
        {
          "indexed": false,
          "internalType": "address",
          "name": "seller",
          "type": "address"
        },
        {
          "indexed": false,
          "internalType": "address",
          "name": "buyer",
          "type": "address"
        },
        {
          "indexed": false,
          "internalType": "uint256",
          "name": "value",
          "type": "uint256"
        }
      ],
      "name": "Sale",
      "type": "event"
    },
    {
      "anonymous": false,
      "inputs": [
        {
          "indexed": false,
          "internalType": "uint256",
          "name": "tokenId",
          "type": "uint256"
        },
        {
          "indexed": false,
          "internalType": "address",
          "name": "seller",
          "type": "address"
        }
      ],
      "name": "SellOfferWithdrawn",
      "type": "event"
    },
    {
      "inputs": [],
      "name": "_tokenContractAddress",
      "outputs": [
        {
          "internalType": "address",
          "name": "",
          "type": "address"
        }
      ],
      "stateMutability": "view",
      "type": "function"
    },
    {
      "inputs": [
        {
          "internalType": "uint256",
          "name": "tokenId",
          "type": "uint256"
        }
      ],
      "name": "acceptBuyOffer",
      "outputs": [],
      "stateMutability": "nonpayable",
      "type": "function"
    },
    {
      "inputs": [
        {
          "internalType": "uint256",
          "name": "",
          "type": "uint256"
        }
      ],
      "name": "activeBuyOffers",
      "outputs": [
        {
          "internalType": "address",
          "name": "buyer",
          "type": "address"
        },
        {
          "internalType": "uint256",
          "name": "price",
          "type": "uint256"
        },
        {
          "internalType": "uint256",
          "name": "createTime",
          "type": "uint256"
        }
      ],
      "stateMutability": "view",
      "type": "function"
    },
    {
      "inputs": [
        {
          "internalType": "uint256",
          "name": "",
          "type": "uint256"
        }
      ],
      "name": "activeSellOffers",
      "outputs": [
        {
          "internalType": "address",
          "name": "seller",
          "type": "address"
        },
        {
          "internalType": "uint256",
          "name": "minPrice",
          "type": "uint256"
        }
      ],
      "stateMutability": "view",
      "type": "function"
    },
    {
      "inputs": [
        {
          "internalType": "address",
          "name": "",
          "type": "address"
        },
        {
          "internalType": "uint256",
          "name": "",
          "type": "uint256"
        }
      ],
      "name": "buyOffersEscrow",
      "outputs": [
        {
          "internalType": "uint256",
          "name": "",
          "type": "uint256"
        }
      ],
      "stateMutability": "view",
      "type": "function"
    },
    {
      "inputs": [
        {
          "internalType": "uint256",
          "name": "tokenId",
          "type": "uint256"
        }
      ],
      "name": "makeBuyOffer",
      "outputs": [],
      "stateMutability": "payable",
      "type": "function"
    },
    {
      "inputs": [
        {
          "internalType": "uint256",
          "name": "tokenId",
          "type": "uint256"
        },
        {
          "internalType": "uint256",
          "name": "minPrice",
          "type": "uint256"
        }
      ],
      "name": "makeSellOffer",
      "outputs": [],
      "stateMutability": "nonpayable",
      "type": "function"
    },
    {
      "inputs": [
        {
          "internalType": "uint256",
          "name": "tokenId",
          "type": "uint256"
        }
      ],
      "name": "purchase",
      "outputs": [],
      "stateMutability": "payable",
      "type": "function"
    },
    {
      "inputs": [
        {
          "internalType": "uint256",
          "name": "tokenId",
          "type": "uint256"
        }
      ],
      "name": "withdrawBuyOffer",
      "outputs": [],
      "stateMutability": "nonpayable",
      "type": "function"
    },
    {
      "inputs": [
        {
          "internalType": "uint256",
          "name": "tokenId",
          "type": "uint256"
        }
      ],
      "name": "withdrawSellOffer",
      "outputs": [],
      "stateMutability": "nonpayable",
      "type": "function"
    }
  ],
  "bytecode": "0x608060405260008060006101000a81548173ffffffffffffffffffffffffffffffffffffffff021916908373ffffffffffffffffffffffffffffffffffffffff1602179055503480156200005257600080fd5b50604051620029ec380380620029ec833981810160405281019062000078919062000137565b806000806101000a81548173ffffffffffffffffffffffffffffffffffffffff021916908373ffffffffffffffffffffffffffffffffffffffff16021790555060008054906101000a900473ffffffffffffffffffffffffffffffffffffffff16600360006101000a81548173ffffffffffffffffffffffffffffffffffffffff021916908373ffffffffffffffffffffffffffffffffffffffff16021790555050620001b1565b600081519050620001318162000197565b92915050565b6000602082840312156200014a57600080fd5b60006200015a8482850162000120565b91505092915050565b6000620001708262000177565b9050919050565b600073ffffffffffffffffffffffffffffffffffffffff82169050919050565b620001a28162000163565b8114620001ae57600080fd5b50565b61282b80620001c16000396000f3fe6080604052600436106100915760003560e01c80635cf0346f116100595780635cf0346f1461017f5780637f4957d3146101aa578063b0e569ef146101d3578063c728c75e14610212578063efef39a11461023b57610091565b806303c556491461009657806305d6af93146100d4578063455023491461011157806348bf7c6a1461013a5780635a123bac14610156575b600080fd5b3480156100a257600080fd5b506100bd60048036038101906100b89190611f1a565b610257565b6040516100cb9291906123b9565b60405180910390f35b3480156100e057600080fd5b506100fb60048036038101906100f69190611e79565b61029b565b60405161010891906125d4565b60405180910390f35b34801561011d57600080fd5b5061013860048036038101906101339190611f1a565b6102c0565b005b610154600480360381019061014f9190611f1a565b61081f565b005b34801561016257600080fd5b5061017d60048036038101906101789190611f1a565b610cc7565b005b34801561018b57600080fd5b50610194610f7b565b6040516101a19190612367565b60405180910390f35b3480156101b657600080fd5b506101d160048036038101906101cc9190611f1a565b610f9f565b005b3480156101df57600080fd5b506101fa60048036038101906101f59190611f1a565b611284565b604051610209939291906123e2565b60405180910390f35b34801561021e57600080fd5b5061023960048036038101906102349190611f43565b6112ce565b005b61025560048036038101906102509190611f1a565b6115d3565b005b60016020528060005260406000206000915090508060000160009054906101000a900473ffffffffffffffffffffffffffffffffffffffff16908060010154905082565b6004602052816000526040600020602052806000526040600020600091509150505481565b803073ffffffffffffffffffffffffffffffffffffffff16600360009054906101000a900473ffffffffffffffffffffffffffffffffffffffff1673ffffffffffffffffffffffffffffffffffffffff1663081812fc836040518263ffffffff1660e01b815260040161033391906125d4565b60206040518083038186803b15801561034b57600080fd5b505afa15801561035f573d6000803e3d6000fd5b505050506040513d601f19601f820116820180604052508101906103839190611e50565b73ffffffffffffffffffffffffffffffffffffffff16146103d9576040517f08c379a00000000000000000000000000000000000000000000000000000000081526004016103d090612494565b60405180910390fd5b813373ffffffffffffffffffffffffffffffffffffffff16600360009054906101000a900473ffffffffffffffffffffffffffffffffffffffff1673ffffffffffffffffffffffffffffffffffffffff16636352211e836040518263ffffffff1660e01b815260040161044c91906125d4565b60206040518083038186803b15801561046457600080fd5b505afa158015610478573d6000803e3d6000fd5b505050506040513d601f19601f8201168201806040525081019061049c9190611e50565b73ffffffffffffffffffffffffffffffffffffffff16146104f2576040517f08c379a00000000000000000000000000000000000000000000000000000000081526004016104e9906125b4565b60405180910390fd5b60006002600085815260200190815260200160002060000160009054906101000a900473ffffffffffffffffffffffffffffffffffffffff169050600073ffffffffffffffffffffffffffffffffffffffff168173ffffffffffffffffffffffffffffffffffffffff16141561059d576040517f08c379a000000000000000000000000000000000000000000000000000000000815260040161059490612534565b60405180910390fd5b60006002600086815260200190815260200160002060010154905060008190506105e660008054906101000a900473ffffffffffffffffffffffffffffffffffffffff16611bcc565b156105f8576105f58683611c6a565b90505b60016000878152602001908152602001600020600080820160006101000a81549073ffffffffffffffffffffffffffffffffffffffff02191690556001820160009055505060026000878152602001908152602001600020600080820160006101000a81549073ffffffffffffffffffffffffffffffffffffffff02191690556001820160009055600282016000905550506000600460008573ffffffffffffffffffffffffffffffffffffffff1673ffffffffffffffffffffffffffffffffffffffff1681526020019081526020016000206000888152602001908152602001600020819055503373ffffffffffffffffffffffffffffffffffffffff168160405161070490612352565b60006040518083038185875af1925050503d8060008114610741576040519150601f19603f3d011682016040523d82523d6000602084013e610746565b606091505b505050600360009054906101000a900473ffffffffffffffffffffffffffffffffffffffff1673ffffffffffffffffffffffffffffffffffffffff166342842e0e3385896040518463ffffffff1660e01b81526004016107a893929190612382565b600060405180830381600087803b1580156107c257600080fd5b505af11580156107d6573d6000803e3d6000fd5b505050507f88863d5e20f64464b554931394e2e4b6f09c10015147215bf26b3ba5070acebe8633858560405161080f9493929190612618565b60405180910390a1505050505050565b803373ffffffffffffffffffffffffffffffffffffffff16600360009054906101000a900473ffffffffffffffffffffffffffffffffffffffff1673ffffffffffffffffffffffffffffffffffffffff16636352211e836040518263ffffffff1660e01b815260040161089291906125d4565b60206040518083038186803b1580156108aa57600080fd5b505afa1580156108be573d6000803e3d6000fd5b505050506040513d601f19601f820116820180604052508101906108e29190611e50565b73ffffffffffffffffffffffffffffffffffffffff161415610939576040517f08c379a0000000000000000000000000000000000000000000000000000000008152600401610930906124b4565b60405180910390fd5b60006001600084815260200190815260200160002060010154146109b057600160008381526020019081526020016000206001015434116109af576040517f08c379a00000000000000000000000000000000000000000000000000000000081526004016109a690612434565b60405180910390fd5b5b62015180426109bf91906126d9565b600260008481526020019081526020016000206002015410806109f75750600260008381526020019081526020016000206001015434115b610a36576040517f08c379a0000000000000000000000000000000000000000000000000000000008152600401610a2d90612474565b60405180910390fd5b60006002600084815260200190815260200160002060000160009054906101000a900473ffffffffffffffffffffffffffffffffffffffff1690506000600460008373ffffffffffffffffffffffffffffffffffffffff1673ffffffffffffffffffffffffffffffffffffffff16815260200190815260200160002060008581526020019081526020016000205490506000600460008473ffffffffffffffffffffffffffffffffffffffff1673ffffffffffffffffffffffffffffffffffffffff1681526020019081526020016000206000868152602001908152602001600020819055506000811115610b8f578173ffffffffffffffffffffffffffffffffffffffff1681604051610b4990612352565b60006040518083038185875af1925050503d8060008114610b86576040519150601f19603f3d011682016040523d82523d6000602084013e610b8b565b606091505b5050505b60405180606001604052803373ffffffffffffffffffffffffffffffffffffffff168152602001348152602001428152506002600086815260200190815260200160002060008201518160000160006101000a81548173ffffffffffffffffffffffffffffffffffffffff021916908373ffffffffffffffffffffffffffffffffffffffff160217905550602082015181600101556040820151816002015590505034600460003373ffffffffffffffffffffffffffffffffffffffff1673ffffffffffffffffffffffffffffffffffffffff1681526020019081526020016000206000868152602001908152602001600020819055507fd1d0f457f709cbed0f3360dee6050dde1a0ac4706268ff21aecae87e6ddb2861843334604051610cb99392919061265d565b60405180910390a150505050565b806201518042610cd791906126d9565b600260008381526020019081526020016000206002015410610d2e576040517f08c379a0000000000000000000000000000000000000000000000000000000008152600401610d2590612554565b60405180910390fd5b3373ffffffffffffffffffffffffffffffffffffffff166002600084815260200190815260200160002060000160009054906101000a900473ffffffffffffffffffffffffffffffffffffffff1673ffffffffffffffffffffffffffffffffffffffff1614610dd2576040517f08c379a0000000000000000000000000000000000000000000000000000000008152600401610dc990612574565b60405180910390fd5b6000600460003373ffffffffffffffffffffffffffffffffffffffff1673ffffffffffffffffffffffffffffffffffffffff16815260200190815260200160002060008481526020019081526020016000205490506000600460003373ffffffffffffffffffffffffffffffffffffffff1673ffffffffffffffffffffffffffffffffffffffff16815260200190815260200160002060008581526020019081526020016000208190555060026000848152602001908152602001600020600080820160006101000a81549073ffffffffffffffffffffffffffffffffffffffff02191690556001820160009055600282016000905550506000811115610f3d573373ffffffffffffffffffffffffffffffffffffffff1681604051610ef790612352565b60006040518083038185875af1925050503d8060008114610f34576040519150601f19603f3d011682016040523d82523d6000602084013e610f39565b606091505b5050505b7fcde8efb885f61e3023afcfb4e801eca4790b08b4d7706ea9e7fb62073a09574a8333604051610f6e9291906125ef565b60405180910390a1505050565b60008054906101000a900473ffffffffffffffffffffffffffffffffffffffff1681565b803073ffffffffffffffffffffffffffffffffffffffff16600360009054906101000a900473ffffffffffffffffffffffffffffffffffffffff1673ffffffffffffffffffffffffffffffffffffffff1663081812fc836040518263ffffffff1660e01b815260040161101291906125d4565b60206040518083038186803b15801561102a57600080fd5b505afa15801561103e573d6000803e3d6000fd5b505050506040513d601f19601f820116820180604052508101906110629190611e50565b73ffffffffffffffffffffffffffffffffffffffff16146110b8576040517f08c379a00000000000000000000000000000000000000000000000000000000081526004016110af90612494565b60405180910390fd5b600073ffffffffffffffffffffffffffffffffffffffff166001600084815260200190815260200160002060000160009054906101000a900473ffffffffffffffffffffffffffffffffffffffff1673ffffffffffffffffffffffffffffffffffffffff16141561115e576040517f08c379a000000000000000000000000000000000000000000000000000000000815260040161115590612454565b60405180910390fd5b3373ffffffffffffffffffffffffffffffffffffffff166001600084815260200190815260200160002060000160009054906101000a900473ffffffffffffffffffffffffffffffffffffffff1673ffffffffffffffffffffffffffffffffffffffff1614611202576040517f08c379a00000000000000000000000000000000000000000000000000000000081526004016111f990612594565b60405180910390fd5b60016000838152602001908152602001600020600080820160006101000a81549073ffffffffffffffffffffffffffffffffffffffff0219169055600182016000905550507f0ee9f15fa7b24cc47b7ad8f1ab7eba99816c29b73654fc73da316af84fc74e5382336040516112789291906125ef565b60405180910390a15050565b60026020528060005260406000206000915090508060000160009054906101000a900473ffffffffffffffffffffffffffffffffffffffff16908060010154908060020154905083565b813073ffffffffffffffffffffffffffffffffffffffff16600360009054906101000a900473ffffffffffffffffffffffffffffffffffffffff1673ffffffffffffffffffffffffffffffffffffffff1663081812fc836040518263ffffffff1660e01b815260040161134191906125d4565b60206040518083038186803b15801561135957600080fd5b505afa15801561136d573d6000803e3d6000fd5b505050506040513d601f19601f820116820180604052508101906113919190611e50565b73ffffffffffffffffffffffffffffffffffffffff16146113e7576040517f08c379a00000000000000000000000000000000000000000000000000000000081526004016113de90612494565b60405180910390fd5b823373ffffffffffffffffffffffffffffffffffffffff16600360009054906101000a900473ffffffffffffffffffffffffffffffffffffffff1673ffffffffffffffffffffffffffffffffffffffff16636352211e836040518263ffffffff1660e01b815260040161145a91906125d4565b60206040518083038186803b15801561147257600080fd5b505afa158015611486573d6000803e3d6000fd5b505050506040513d601f19601f820116820180604052508101906114aa9190611e50565b73ffffffffffffffffffffffffffffffffffffffff1614611500576040517f08c379a00000000000000000000000000000000000000000000000000000000081526004016114f7906125b4565b60405180910390fd5b60405180604001604052803373ffffffffffffffffffffffffffffffffffffffff168152602001848152506001600086815260200190815260200160002060008201518160000160006101000a81548173ffffffffffffffffffffffffffffffffffffffff021916908373ffffffffffffffffffffffffffffffffffffffff160217905550602082015181600101559050507ffebb76be1873df3b56e866a34c7c2c524f18821d1fec4252ae2fe8b11fc202d08433856040516115c59392919061265d565b60405180910390a150505050565b803373ffffffffffffffffffffffffffffffffffffffff16600360009054906101000a900473ffffffffffffffffffffffffffffffffffffffff1673ffffffffffffffffffffffffffffffffffffffff16636352211e836040518263ffffffff1660e01b815260040161164691906125d4565b60206040518083038186803b15801561165e57600080fd5b505afa158015611672573d6000803e3d6000fd5b505050506040513d601f19601f820116820180604052508101906116969190611e50565b73ffffffffffffffffffffffffffffffffffffffff1614156116ed576040517f08c379a00000000000000000000000000000000000000000000000000000000081526004016116e4906124b4565b60405180910390fd5b60006001600084815260200190815260200160002060000160009054906101000a900473ffffffffffffffffffffffffffffffffffffffff169050600073ffffffffffffffffffffffffffffffffffffffff168173ffffffffffffffffffffffffffffffffffffffff161415611798576040517f08c379a000000000000000000000000000000000000000000000000000000000815260040161178f90612514565b60405180910390fd5b3073ffffffffffffffffffffffffffffffffffffffff16600360009054906101000a900473ffffffffffffffffffffffffffffffffffffffff1673ffffffffffffffffffffffffffffffffffffffff1663081812fc856040518263ffffffff1660e01b815260040161180a91906125d4565b60206040518083038186803b15801561182257600080fd5b505afa158015611836573d6000803e3d6000fd5b505050506040513d601f19601f8201168201806040525081019061185a9190611e50565b73ffffffffffffffffffffffffffffffffffffffff161461192e5760016000848152602001908152602001600020600080820160006101000a81549073ffffffffffffffffffffffffffffffffffffffff0219169055600182016000905550507f0ee9f15fa7b24cc47b7ad8f1ab7eba99816c29b73654fc73da316af84fc74e5383826040516118eb9291906125ef565b60405180910390a16040517f08c379a0000000000000000000000000000000000000000000000000000000008152600401611925906124f4565b60405180910390fd5b6001600084815260200190815260200160002060010154341015611987576040517f08c379a000000000000000000000000000000000000000000000000000000000815260040161197e906124d4565b60405180910390fd5b60003490506119b560008054906101000a900473ffffffffffffffffffffffffffffffffffffffff16611bcc565b156119c7576119c48482611c6a565b90505b6001600085815260200190815260200160002060000160009054906101000a900473ffffffffffffffffffffffffffffffffffffffff1673ffffffffffffffffffffffffffffffffffffffff1681604051611a2190612352565b60006040518083038185875af1925050503d8060008114611a5e576040519150601f19603f3d011682016040523d82523d6000602084013e611a63565b606091505b505050600360009054906101000a900473ffffffffffffffffffffffffffffffffffffffff1673ffffffffffffffffffffffffffffffffffffffff166342842e0e8333876040518463ffffffff1660e01b8152600401611ac593929190612382565b600060405180830381600087803b158015611adf57600080fd5b505af1158015611af3573d6000803e3d6000fd5b5050505060016000858152602001908152602001600020600080820160006101000a81549073ffffffffffffffffffffffffffffffffffffffff02191690556001820160009055505060026000858152602001908152602001600020600080820160006101000a81549073ffffffffffffffffffffffffffffffffffffffff02191690556001820160009055600282016000905550507f88863d5e20f64464b554931394e2e4b6f09c10015147215bf26b3ba5070acebe84833334604051611bbe9493929190612618565b60405180910390a150505050565b6000808273ffffffffffffffffffffffffffffffffffffffff166301ffc9a7632a55205a60e01b6040518263ffffffff1660e01b8152600401611c0f9190612419565b60206040518083038186803b158015611c2757600080fd5b505afa158015611c3b573d6000803e3d6000fd5b505050506040513d601f19601f82011682018060405250810190611c5f9190611ef1565b905080915050919050565b6000806000600360009054906101000a900473ffffffffffffffffffffffffffffffffffffffff1673ffffffffffffffffffffffffffffffffffffffff16632a55205a86866040518363ffffffff1660e01b8152600401611ccc929190612694565b604080518083038186803b158015611ce357600080fd5b505afa158015611cf7573d6000803e3d6000fd5b505050506040513d601f19601f82011682018060405250810190611d1b9190611eb5565b9150915060008185611d2d91906126d9565b90506000821115611da2578273ffffffffffffffffffffffffffffffffffffffff1682604051611d5c90612352565b60006040518083038185875af1925050503d8060008114611d99576040519150601f19603f3d011682016040523d82523d6000602084013e611d9e565b606091505b5050505b7fe61af2269c9afbdb69efce2b15f2a464f8ee6237f105b3d4024f2e824a9f0af38683604051611dd3929190612694565b60405180910390a180935050505092915050565b600081359050611df6816127b0565b92915050565b600081519050611e0b816127b0565b92915050565b600081519050611e20816127c7565b92915050565b600081359050611e35816127de565b92915050565b600081519050611e4a816127de565b92915050565b600060208284031215611e6257600080fd5b6000611e7084828501611dfc565b91505092915050565b60008060408385031215611e8c57600080fd5b6000611e9a85828601611de7565b9250506020611eab85828601611e26565b9150509250929050565b60008060408385031215611ec857600080fd5b6000611ed685828601611dfc565b9250506020611ee785828601611e3b565b9150509250929050565b600060208284031215611f0357600080fd5b6000611f1184828501611e11565b91505092915050565b600060208284031215611f2c57600080fd5b6000611f3a84828501611e26565b91505092915050565b60008060408385031215611f5657600080fd5b6000611f6485828601611e26565b9250506020611f7585828601611e26565b9150509250929050565b611f888161270d565b82525050565b611f978161272b565b82525050565b6000611faa6028836126c8565b91507f53656c6c206f726465722061742074686973207072696365206f72206c6f776560008301527f72206578697374730000000000000000000000000000000000000000000000006020830152604082019050919050565b6000612010600d836126c8565b91507f4e6f2073616c65206f66666572000000000000000000000000000000000000006000830152602082019050919050565b60006120506028836126c8565b91507f50726576696f757320627579206f6666657220686967686572206f72206e6f7460008301527f20657870697265640000000000000000000000000000000000000000000000006020830152604082019050919050565b60006120b6600c836126c8565b91507f4e6f7420617070726f76656400000000000000000000000000000000000000006000830152602082019050919050565b60006120f66017836126c8565b91507f546f6b656e206f776e6572206e6f7420616c6c6f7765640000000000000000006000830152602082019050919050565b60006121366013836126c8565b91507f416d6f756e742073656e7420746f6f206c6f77000000000000000000000000006000830152602082019050919050565b60006121766012836126c8565b91507f496e76616c69642073656c6c206f6666657200000000000000000000000000006000830152602082019050919050565b60006121b66014836126c8565b91507f4e6f206163746976652073656c6c206f666665720000000000000000000000006000830152602082019050919050565b60006121f6600c836126c8565b91507f4e6f20627579206f6666657200000000000000000000000000000000000000006000830152602082019050919050565b60006122366015836126c8565b91507f427579206f66666572206e6f74206578706972656400000000000000000000006000830152602082019050919050565b60006122766000836126bd565b9150600082019050919050565b60006122906009836126c8565b91507f4e6f7420627579657200000000000000000000000000000000000000000000006000830152602082019050919050565b60006122d0600a836126c8565b91507f4e6f742073656c6c6572000000000000000000000000000000000000000000006000830152602082019050919050565b6000612310600f836126c8565b91507f4e6f7420746f6b656e206f776e657200000000000000000000000000000000006000830152602082019050919050565b61234c81612777565b82525050565b600061235d82612269565b9150819050919050565b600060208201905061237c6000830184611f7f565b92915050565b60006060820190506123976000830186611f7f565b6123a46020830185611f7f565b6123b16040830184612343565b949350505050565b60006040820190506123ce6000830185611f7f565b6123db6020830184612343565b9392505050565b60006060820190506123f76000830186611f7f565b6124046020830185612343565b6124116040830184612343565b949350505050565b600060208201905061242e6000830184611f8e565b92915050565b6000602082019050818103600083015261244d81611f9d565b9050919050565b6000602082019050818103600083015261246d81612003565b9050919050565b6000602082019050818103600083015261248d81612043565b9050919050565b600060208201905081810360008301526124ad816120a9565b9050919050565b600060208201905081810360008301526124cd816120e9565b9050919050565b600060208201905081810360008301526124ed81612129565b9050919050565b6000602082019050818103600083015261250d81612169565b9050919050565b6000602082019050818103600083015261252d816121a9565b9050919050565b6000602082019050818103600083015261254d816121e9565b9050919050565b6000602082019050818103600083015261256d81612229565b9050919050565b6000602082019050818103600083015261258d81612283565b9050919050565b600060208201905081810360008301526125ad816122c3565b9050919050565b600060208201905081810360008301526125cd81612303565b9050919050565b60006020820190506125e96000830184612343565b92915050565b60006040820190506126046000830185612343565b6126116020830184611f7f565b9392505050565b600060808201905061262d6000830187612343565b61263a6020830186611f7f565b6126476040830185611f7f565b6126546060830184612343565b95945050505050565b60006060820190506126726000830186612343565b61267f6020830185611f7f565b61268c6040830184612343565b949350505050565b60006040820190506126a96000830185612343565b6126b66020830184612343565b9392505050565b600081905092915050565b600082825260208201905092915050565b60006126e482612777565b91506126ef83612777565b92508282101561270257612701612781565b5b828203905092915050565b600061271882612757565b9050919050565b60008115159050919050565b60007fffffffff0000000000000000000000000000000000000000000000000000000082169050919050565b600073ffffffffffffffffffffffffffffffffffffffff82169050919050565b6000819050919050565b7f4e487b7100000000000000000000000000000000000000000000000000000000600052601160045260246000fd5b6127b98161270d565b81146127c457600080fd5b50565b6127d08161271f565b81146127db57600080fd5b50565b6127e781612777565b81146127f257600080fd5b5056fea2646970667358221220a153d64dc848029f2840069499aff3a6d9c215ffb566fead4cd20e57d8e2003964736f6c63430008000033",
  "linkReferences": {},
  "deployedLinkReferences": {}
}